:020000040800F2
:1000000000800120CD3F0008510E0008570E000867
:100010005D0E0008630E0008690E00080000000075
:100020000000000000000000000000006F0E00084B
:100030007D0E0008000000008B0E0008990E0008DD
:100040001D4000081D4000081D4000081D4000081C
:100050001D4000081D4000081D4000081D4000080C
:100060001D4000081D4000081D4000081D400008FC
:100070001D4000081D4000081D4000081D400008EC
:100080001D4000081D4000081D4000081D400008DC
:100090001D4000081D4000081D4000081D400008CC
:1000A0001D4000081D4000081D4000081D400008BC
:1000B0001D4000081D4000081D4000081D400008AC
:1000C0001D4000081D4000081D4000081D4000089C
:1000D0001D4000081D400008A50E0008B90E0008CC
:1000E000CD0E00081D4000081D4000081D400008FE
:1000F0001D4000081D4000081D4000081D4000086C
:100100001D4000081D4000081D4000081D4000085B
:100110001D4000081D4000081D4000081D4000084B
:100120001D4000081D4000081D4000081D4000083B
:100130001D4000081D4000081D4000081D4000082B
:100140001D4000081D4000081D4000081D4000081B
:100150001D4000081D4000081D4000081D4000080B
:100160001D4000081D4000081D4000081D400008FB
:100170001D4000081D4000081D4000080000000050
:080180001D4000081D400008AD
:1001900010B5054C237833B9044B13B10448AFF3C1
:1001A00000800123237010BD7000002000000000BB
:1001B000BC48000808B5034B1BB103490348AFF323
:1001C000008008BD0000000074000020BC4800084A
:1001D000034613F8012B002AFBD1181A0138704787
:1001E00001F0FF01102A2BDB10F0070F08D010F8E8
:1001F000013B013A8B422DD010F0070F42B3F6D1EC
:10020000F0B441EA012141EA014122F007047FF004
:1002100000070023F0E80256083C85EA010586EA5B
:10022000010685FA47F5A3FA87F586FA47F6A5FA97
:1002300087F68EB9EED1F0BC01F0FF0102F00702A3
:1002400032B110F8013B013A83EA010313B1F8D14E
:100250000020704701387047002D06BF354603382F
:10026000073815F0010F07D1013015F4807F02BF68
:10027000013015F4C03F0130F0BC0138704700BFB9
:1002800053B94AB9002908BF00281CBF4FF0FF31FD
:100290004FF0FF3000F07AB9ADF1080C6DE904CEF3
:1002A00000F006F8DDF804E0DDE9022304B0704751
:1002B0002DE9F0478C460D460446089E002B51D18F
:1002C0008A4217466DD9B2FA82FEBEF1000F0BD0FA
:1002D000CEF1200C01FA0EF520FA0CFC02FA0EF712
:1002E0004CEA050C00FA0EF44FEA174A250CBCFB49
:1002F000FAF81FFA87F90AFB18CC45EA0C4508FB07
:1003000009F3AB420AD9ED1908F1FF3280F02381DD
:10031000AB4240F22081A8F102083D44ED1AA4B29C
:10032000B5FBFAF00AFB105544EA054400FB09F955
:10033000A14509D9E41900F1FF3380F00A81A145F4
:1003400040F2078102383C44A4EB090440EA08402B
:100350000021002E61D024FA0EF400233460736073
:10036000BDE8F0878B4207D9002E54D0002186E8E3
:1003700021000846BDE8F087B3FA83F1002940F078
:100380008E80AB4202D3824200F2FA80841A65EB7F
:1003900003050120AC46002E3FD086E81010BDE8D2
:1003A000F08712B90127B7FBF2F7B7FA87FEBEF163
:1003B000000F34D1EB1B3A0C1FFA87FC0121B3FB71
:1003C000F2F8250C02FB183345EA03450CFB08F351
:1003D000AB4207D9ED1908F1FF3002D2AB4200F26F
:1003E000D1808046ED1AA3B2B5FBF2F002FB1055A6
:1003F00043EA05440CFB00FCA44507D9E41900F1CD
:10040000FF3302D2A44500F2B8801846A4EB0C04D6
:1004100040EA08409DE731463046BDE8F087CEF11E
:10042000200405FA0EF307FA0EF720FA04F83A0C46
:1004300025FA04F448EA0308B4FBF2F14FEA184540
:1004400002FB11441FFA87FC45EA044501FB0CF34B
:10045000AB4200FA0EF409D9ED1901F1FF3080F03A
:100460008A80AB4240F2878002393D44EB1A1FFA82
:1004700088F5B3FBF2F002FB103345EA034500FBBD
:100480000CF3AB4207D9ED1900F1FF386FD2AB4244
:100490006DD902383D44EB1A40EA01418FE7C1F1C2
:1004A000200722FA07F88B4005FA01F448EA030313
:1004B00020FA07FE4FEA134CFD404EEA040EB5FB4E
:1004C000FCF94FEA1E440CFB19551FFA83F844EA65
:1004D000054509FB08F4AC4202FA01F200FA01FA00
:1004E00008D9ED1809F1FF3043D2AC4241D9A9F146
:1004F00002091D442D1B1FFA8EFEB5FBFCF00CFB00
:1005000010554EEA054400FB08F8A04507D9E41849
:1005100000F1FF3529D2A04527D902381C4440EA12
:100520000940A4EB0804A0FB02894C45C6464D4691
:1005300015D312D056B1BAEB0E0364EB050404FADE
:1005400007F7CB401F43CC40376074600021BDE803
:10055000F0871846F8E69046E0E6C245EAD2B8EBE6
:10056000020E69EB03050138E4E72846D7E7404669
:1005700091E78146BEE7014678E702383C4445E70B
:10058000084608E7A8F102083D442BE7704700BF82
:1005900080B582B000AF0A23FB7100F007FD00F0C8
:1005A0002BF800F023F900F0C1F800F0EFF800F0AC
:1005B0009BF80E4B1B78DBB2012B07D10C4800F0E7
:1005C00085F900F0A9F9094B00221A7041F2707008
:1005D00000F068FDFB79013BFB71FB79002BE8D152
:1005E000044800F073F900F00FFAFEE78C000020D9
:1005F000D44800081849000880B5B8B000AF07F12A
:100600009C0344220021184603F034FD07F18803BF
:1006100000221A605A609A60DA601A613B468822AA
:100620000021184603F026FD0223C7F89C304FF442
:100630008073C7F8A8301023C7F8AC300223C7F87E
:10064000C4300223C7F8C8300123C7F8CC300A23CE
:10065000C7F8D0300723C7F8D4300223C7F8D83002
:100660000223C7F8DC3007F19C03184601F0CAFAF0
:100670000346002B01D000F01DFB0F23C7F8883084
:100680000323C7F88C300023C7F890300023C7F845
:1006900094300023C7F8983007F1880304211846E6
:1006A00001F096FE0346002B01D000F003FB062369
:1006B0003B600023FB6300233B643B46184602F08B
:1006C0008BF80346002B01D000F0F4FA4FF40070D1
:1006D00001F042FA0346002B01D000F0EBFA00BF14
:1006E000E037BD4680BD000080B500AF0D4B0E4A1F
:1006F0001A600C4B00221A710A4B00225A71094BE6
:1007000000225A61074B00229A61064B01221A62AD
:10071000044800F0F9FD0346002B01D000F0CAFAAE
:1007200000BF80BD1C0100200030024080B500AF3A
:10073000144B154A1A60134B4FF4E1325A60114BB7
:1007400000229A600F4B0022DA600E4B00221A61E1
:100750000C4B0C225A610B4B00229A61094B002270
:10076000DA61084B00221A62064B00225A620548E1
:1007700002F0E2FC0346002B01D000F09BFA00BF20
:1007800080BD00BF400100200044004080B500AFA4
:10079000144B154A1A60134B4FF4E1325A60114B57
:1007A00000229A600F4B0022DA600E4B00221A6181
:1007B0000C4B0C225A610B4B00229A61094B002210
:1007C000DA61084B00221A62064B00225A62054881
:1007D00002F0B2FC0346002B01D000F06BFA00BF20
:1007E00080BD00BF9C0000200048004080B58AB05A
:1007F00000AF07F1140300221A605A609A60DA60B1
:100800001A612F4A2E4BDB6C43F00403D3642C4B4C
:10081000DB6C03F004033B613B69294A284BDB6C2A
:1008200043F08003D364264BDB6C03F08003FB6052
:10083000FB68234A224BDB6C43F00103D364204B5B
:10084000DB6C03F00103BB60BB681D4A1C4BDB6C17
:1008500043F00203D3641A4BDB6C03F002037B60AA
:100860007B68002220214FF0904001F02BF94FF4DB
:1008700000537B61134BBB610023FB6107F1140341
:100880001946114800F076FF20237B610123BB61EC
:100890000023FB6100233B6207F1140319464FF06C
:1008A000904000F067FF00220021282000F0F5FCB6
:1008B000282000F00EFD00BF2837BD4680BD00BFD8
:1008C0000010024000002110000800480FB480B55D
:1008D00096B000AF07F164037B6007F108037A6804
:1008E000396E184603F0E6FB07F108031846FFF7D8
:1008F0006FFC03469AB207F108014FF0FF33054839
:1009000002F068FC00BF5837BD46BDE8804004B027
:10091000704700BF9C00002080B582B000AF00236C
:10092000FB71C8220021354803F0A4FB4FF0FF33D0
:1009300001223249324802F0E0FC304B1B78FB7157
:10094000FB799AB24FF0FF332C492D4802F0D5FCC9
:100950002A4B5B78513B0B2B4AD801A252F823F06B
:100960009109000899090008A1090008A9090008CF
:10097000B1090008B9090008C1090008C90900083F
:10098000D1090008D9090008E1090008E9090008AF
:100990001A4800F091F82FE0184800F0D5F82BE045
:1009A000164800F0DBF827E0144800F0E1F823E0F7
:1009B000124800F0E7F81FE0104800F0EDF81BE0E7
:1009C0000E4800F0F3F817E00C4800F003F913E0CC
:1009D0000A4800F0F5F80FE0084800F005F90BE0D0
:1009E000064800F00BF907E0044800F011F903E0B5
:1009F0000448FFF76BFF00BF93E700BFC001002072
:100A0000400100206449000880B584B000AF0F4861
:100A1000FFF75CFF0E4B1B68FB60F9680D48FFF7A2
:100A200055FFFB683B603B6883F308880A4B1B68F3
:100A3000BB60BB687B6079680848FFF747FF7B684D
:100A4000984700BF1037BD4680BD00BF9C490008D5
:100A500000800008C849000804800008E849000830
:100A600080B582B000AF7F23FB71F91D4FF0FF33DB
:100A70000122034802F0AEFB00BF0837BD4680BD2F
:100A80004001002080B584B000AF03460A46FB71E8
:100A90001346BB71A5233B73BB797B7307F10C0134
:100AA0004FF0FF330222034802F094FB00BF1037DF
:100AB000BD4680BD4001002080B586B000AF7860A3
:100AC0001D48FFF703FF7B681B7801337B617B695F
:100AD000043B7A6813441B683B617B69043B3A69B9
:100AE0001946786800F09EF80346002B1AD1134887
:100AF000FFF7ECFE7B681B7801211846FFF7C2FF69
:100B000000F0BCF80346FB73FB7B1946FB7B1A46DF
:100B10000B48FFF7DBFE07F10F030121184600F039
:100B2000B5F804E00748FFF7D1FEFFF799FF00BFD3
:100B30001837BD4680BD00BF144A0008444A00086B
:100B40006C4A0008904A000880B483B000AF786017
:100B500000BF0C37BD465DF8047B704780B483B09E
:100B600000AF786000BF0C37BD465DF8047B70476E
:100B700080B483B000AF786000BF0C37BD465DF82D
:100B8000047B704780B483B000AF786000BF0C373F
:100B9000BD465DF8047B704780B483B000AF7860D9
:100BA00000BF0C37BD465DF8047B704780B483B04E
:100BB00000AF786000BF0C37BD465DF8047B70471E
:100BC00080B483B000AF786000BF0C37BD465DF8DD
:100BD000047B704780B483B000AF786000BF0C37EF
:100BE000BD465DF8047B704780B483B000AF786089
:100BF00000BF0C37BD465DF8047B704780B483B0FE
:100C000000AF786000BF0C37BD465DF8047B7047CD
:100C100080B483B000AF786000BF0C37BD465DF88C
:100C2000047B704780B588B000AFF860B9607A6027
:100C3000FF23FB610023BB610FE0FA68BB6913442B
:100C40001B787B6107F11403012219460A4800F062
:100C5000BFFBF861BB690133BB61BA69BB689A42EB
:100C6000EBD3FA697B689A4201D1002300E00123AB
:100C700018462037BD4680BD1C01002080B400AF5F
:100C800010231846BD465DF8047B704780B582B0DE
:100C900000AF786039603B689AB24FF0FF337968F3
:100CA000034802F097FA00BF0837BD4680BD00BF79
:100CB0004001002080B400AF72B6FEE780B483B07C
:100CC00000AF0F4A0E4B1B6E43F0010313660C4B33
:100CD0001B6E03F001037B607B68094A084B9B6D28
:100CE00043F080539365064B9B6D03F080533B604C
:100CF0003B6800BF0C37BD465DF8047B704700BF02
:100D00000010024080B485B000AF78607B681B683B
:100D10000A4A93420BD10A4A094B9B6C43F4805315
:100D20009364074B9B6C03F48053FB60FB6800BF2C
:100D30001437BD465DF8047B704700BF00300240A9
:100D40000010024080B58CB000AF786007F11C0342
:100D500000221A605A609A60DA601A617B681B6828
:100D6000374A934231D1374A364B9B6D43F40033B7
:100D70009365344B9B6D03F40033BB61BB69314A0F
:100D8000304BDB6C43F00103D3642E4BDB6C03F080
:100D900001037B617B690C23FB6102233B6200231F
:100DA0007B620323BB620723FB6207F11C03194626
:100DB0004FF0904000F0DEFC00220021262000F0E1
:100DC0006CFA262000F085FA35E07B681B681E4A25
:100DD000934230D11B4A1B4B9B6D43F48023936598
:100DE000184B9B6D03F480233B613B69154A154BFF
:100DF000DB6C43F00403D364124BDB6C03F004039D
:100E0000FB60FB684FF44063FB6102233B620023FD
:100E10007B620323BB620723FB6207F11C031946B5
:100E20000A4800F0A7FC00220021272000F035FA34
:100E3000272000F04EFA00BF3037BD4680BD00BF0E
:100E400000440040001002400048004000080048F4
:100E500080B400AFFEE780B400AFFEE780B400AF1F
:100E6000FEE780B400AFFEE780B400AFFEE780B4D9
:100E700000AF00BFBD465DF8047B704780B400AF93
:100E800000BFBD465DF8047B704780B400AF00BF73
:100E9000BD465DF8047B704780B500AF00F0E2F816
:100EA00000BF80BD80B500AF024802F0F3FA00BF7A
:100EB00080BD00BF4001002080B500AF024802F0B5
:100EC000E9FA00BF80BD00BF9C00002080B500AFE4
:100ED000044B01221A704FF4005000F00BFE00BFCB
:100EE00080BD00BF8C00002080B584B000AF78606A
:100EF000114B1B68002B02D10F4B104A1A600E4B8E
:100F00001B68FB600C4B1A687B6813446A4693426B
:100F100007D903F085F802460C2313604FF0FF3326
:100F200006E0054B1A687B681344034A1360FB68AC
:100F300018461037BD4680BD90000020900200206A
:100F400080B400AF174A174BD3F8883043F47003CE
:100F5000C2F88830144A144B1B6843F00103136035
:100F6000114B00229A60104A0F4B1B6823F0A853C4
:100F700023F4102313600C4B4FF48052DA600A4ABA
:100F8000094B1B6823F480231360074B00229A61EE
:100F9000044B4FF000629A6000BFBD465DF8047BD1
:100FA000704700BF00ED00E00010024080B582B045
:100FB00000AF0023FB710C4A0B4B1B6843F480739A
:100FC0001360032000F05EF9002000F00FF80346E4
:100FD000002B02D00123FB7101E0FFF76FFEFB79CC
:100FE00018460837BD4680BD0020024080B584B059
:100FF00000AF78600023FB73174B1B78002B23D0C6
:10100000164B1A68144B1B7819464FF47A73B3FBCE
:10101000F1F3B2FBF3F3184600F069F90346002B35
:101020000FD17B680F2B09D8002279684FF0FF3071
:1010300000F033F90A4A7B68136007E00123FB7371
:1010400004E00123FB7301E00123FB73FB7B1846E3
:101050001037BD4680BD00BF080000200000002002
:101060000400002080B400AF064B1B781A46064BE4
:101070001B681344044A136000BFBD465DF8047B3F
:10108000704700BF080000208802002080B400AF35
:10109000034B1B681846BD465DF8047B704700BFD4
:1010A0008802002080B584B000AF7860FFF7EEFFC3
:1010B000B8607B68FB60FB68B3F1FF3F05D0094B6C
:1010C0001B781A46FB681344FB6000BFFFF7DEFF86
:1010D0000246BB68D21AFB689A42F7D300BF1037AA
:1010E000BD4680BD0800002080B485B000AF7860A8
:1010F0007B6803F00703FB600C4BDB68BB60BA68DE
:101100004FF6FF031340BB60FB681A02BB68134332
:1011100043F0BF6343F40033BB60044ABB68D36051
:1011200000BF1437BD465DF8047B704700ED00E05A
:1011300080B400AF044BDB681B0A03F007031846BA
:10114000BD465DF8047B704700ED00E080B483B0DD
:1011500000AF0346FB7197F90730002B0BDB094901
:1011600097F907305B09FA7902F01F02012000FAB3
:1011700002F241F8232000BF0C37BD465DF8047B26
:10118000704700BF00E100E080B483B000AF0346C9
:101190003960FB7197F90730002B0ADB0D4997F98D
:1011A00007303A68D2B21201D2B20B4483F800235E
:1011B0000AE00949FB7903F00F03043B3A68D2B215
:1011C0001201D2B20B441A7600BF0C37BD465DF84F
:1011D000047B704700E100E000ED00E080B489B0DE
:1011E00000AFF860B9607A60FB6803F00703FB6149
:1011F000FB69C3F10703042B28BF0423BB61FB6910
:101200000433062B02D9FB69033B00E000237B611A
:101210000122BB6902FA03F35A1EBB681A407B69BC
:101220009A4001217B6901FA03F3591E7B680B4048
:10123000134318462437BD465DF8047B7047000011
:1012400080B582B000AF78607B68013BB3F1807FEE
:1012500001D301230FE00A4A7B68013B53600F2151
:101260004FF0FF30FFF790FF054B00229A60044BD0
:1012700007221A60002318460837BD4680BD00BF0C
:1012800010E000E080B582B000AF78607868FFF7CA
:101290002BFF00BF0837BD4680BD80B586B000AFCC
:1012A0000346B9607A60FB7300237B61FFF740FF60
:1012B00078617A68B9687869FFF790FF024697F914
:1012C0000F3011461846FFF75FFF00BF1837BD46C5
:1012D00080BD80B582B000AF0346FB7197F907303F
:1012E0001846FFF733FF00BF0837BD4680BD80B505
:1012F00082B000AF78607868FFF7A2FF0346184617
:101300000837BD4680BD000080B582B000AF786070
:101310007B68002B01D1012354E07B685B7FDBB24B
:10132000002B05D17B6800221A777868FFF7EAFC6A
:101330007B6802225A777B681B79002B0CD17B6873
:101340001B68224A5A617B681B687A681268926837
:1013500022F018029A600CE07B6899687B68DB6871
:101360001A46786800F03EF90346002B01D00123AD
:1013700028E07B685B79002B05D17B681B684FF008
:10138000FF321A6104E07B681B687A6812691A618F
:101390007B681B687A681268926822F060017A683C
:1013A00052690A439A607B681B687A68126892687F
:1013B00022F080017A6892690A439A607B68012270
:1013C0005A77002318460837BD4680BDB71DC104B3
:1013D00080B586B000AFF860B9607A6000233B61E9
:1013E000FB6802225A77FB681B6A022B22D0032B70
:1013F00002D0012B17D024E000237B610AE0FB68B8
:101400001B687A699200B9680A4412681A607B699D
:1014100001337B617A697B689A42F0D3FB681B6871
:101420001B683B610DE07A68B968F86800F011F854
:10143000386106E07A68B968F86800F099F83861B0
:1014400000BFFB6801225A773B6918461837BD4632
:1014500080BD80B489B000AFF860B9607A600023C5
:10146000FB6122E0FB681B68FA699200B9680A44D4
:1014700012781106FA6992000132B86802441278B3
:1014800012041143FA6992000232B86802441278D9
:1014900012020A43F96989000331B86801440978E6
:1014A0000A431A60FB690133FB617B689A08FB6998
:1014B0009A42D7D87B6803F00303002B4FD07B6898
:1014C00003F00303012B08D1FB681B681946FB6975
:1014D0009B00BA6813441B780B707B6803F003030E
:1014E000022B16D1FB699B00BA6813441B781B02C0
:1014F0001AB2FB699B000133B9680B441B781BB21D
:1015000013431BB27B83FB681B687B617B697A8B0F
:101510001A807B6803F00303032B20D1FB699B0037
:10152000BA6813441B781B021AB2FB699B00013393
:10153000B9680B441B781BB213431BB27B83FB6857
:101540001B687B617B697A8B1A80FB681B68194674
:10155000FB699B000233BA6813441B780B70FB686D
:101560001B681B6818462437BD465DF8047B70472E
:1015700080B487B000AFF860B9607A6000237B6107
:1015800012E0FB681B687A699200B9680A44128805
:101590001204796989000231B868014409880A4354
:1015A0001A607B6901337B617B685A087B699A42C8
:1015B000E7D87B6803F00103002B09D0FB681B68A8
:1015C0003B617B699B00BA6813441A883B691A80A7
:1015D000FB681B681B6818461C37BD465DF8047B1A
:1015E0007047000080B487B000AFF860B9607A60DF
:1015F0000023FB751F233B6100BF3B695A1E3A6104
:10160000002B09D03B6903F01F03BA6822FA03F3E9
:1016100003F00103002BF0D07B68182B46D801A201
:1016200052F823F0B3160008AD160008AD160008F6
:10163000AD160008AD160008AD160008AD1600087E
:10164000AD160008A1160008AD160008AD1600087A
:10165000AD160008AD160008AD160008AD1600085E
:10166000AD16000895160008AD160008AD16000866
:10167000AD160008AD160008AD160008AD1600083E
:10168000AD160008891600083B69062B13D9012303
:10169000FB7510E03B69072B0FD90123FB750CE0AC
:1016A0003B690F2B0BD90123FB7508E00123FB7568
:1016B00006E000BF04E000BF02E000BF00E000BFA2
:1016C000FB7D002B0DD1FB681B68BA685A61FB6873
:1016D0001B68FA681268926822F018017A680A4357
:1016E0009A60FB7D18461C37BD465DF8047B704749
:1016F00080B584B000AF78600023FB737B6893F8FB
:101700002530DBB2022B05D07B680422DA6301238B
:10171000FB7329E07B681B687A681268126822F004
:101720000E021A607B681B687A681268126822F0E1
:1017300001021A607B681B6C7A68526C02F01C0212
:10174000012101FA02F25A607B68012283F8252008
:101750007B68002283F824207B689B6B002B03D0DE
:101760007B689B6B78689847FB7B18461037BD46B3
:1017700080BD000080B487B000AF7860396000237E
:101780007B617FE13B681A6801217B6901FA03F301
:101790001340FB60FB68002B00F071813B685B68C5
:1017A000012B0BD03B685B68022B07D03B685B6862
:1017B000112B03D03B685B68122B30D17B689B6890
:1017C0003B617B695B00032202FA03F3DB433A6966
:1017D00013403B613B68DA687B695B0002FA03F304
:1017E0003A6913433B617B683A699A607B685B683E
:1017F0003B6101227B6902FA03F3DB433A69134040
:101800003B613B685B681B0903F001027B6902FADC
:1018100003F33A6913433B617B683A695A603B685A
:101820005B6803F00303032B18D17B68DB6A3B6121
:1018300001227B6902FA03F3DB433A6913403B61FF
:101840003B685B68DB0803F001027B6902FA03F383
:101850003A6913433B617B683A69DA627B68DB680B
:101860003B617B695B00032202FA03F3DB433A69C5
:1018700013403B613B689A687B695B0002FA03F3A3
:101880003A6913433B617B683A69DA603B685B689D
:10189000022B03D03B685B68122B23D17B69DA08EB
:1018A0007B68083253F822303B617B6903F0070301
:1018B0009B000F2202FA03F3DB433A6913403B61BA
:1018C0003B681A697B6903F007039B0002FA03F384
:1018D0003A6913433B617B69DA087B6808323969EE
:1018E00043F822107B681B683B617B695B00032225
:1018F00002FA03F3DB433A6913403B613B685B68E0
:1019000003F003027B695B0002FA03F33A691343B5
:101910003B617B683A691A603B685B6803F08053FF
:10192000002B00F0AC805E4A5D4B1B6E43F0010360
:1019300013665B4B1B6E03F00103BB60BB68594A27
:101940007B699B08023352F823303B617B6903F0CB
:1019500003039B000F2202FA03F3DB433A691340AF
:101960003B617B68B3F1904F25D07B684E4A934230
:101970001FD07B684D4A934219D07B684C4A9342F2
:1019800013D07B684B4A93420DD07B684A4A9342FE
:1019900007D07B68494A934201D106230CE0072314
:1019A0000AE0052308E0042306E0032304E0022301
:1019B00002E0012300E000237A6902F003029200B2
:1019C00093403A6913433B6136497B699B08023374
:1019D0003A6941F823203A4B1B683B61FB68DB43C3
:1019E0003A6913403B613B685B6803F48033002B2A
:1019F00003D03A69FB6813433B61314A3B6913608A
:101A00002F4B5B683B61FB68DB433A6913403B61EA
:101A10003B685B6803F40033002B03D03A69FB6832
:101A200013433B61264A3B695360254B9B683B61EE
:101A3000FB68DB433A6913403B613B685B6803F436
:101A40008013002B03D03A69FB6813433B611C4AA7
:101A50003B6993601A4BDB683B61FB68DB433A6987
:101A600013403B613B685B6803F40013002B03D019
:101A70003A69FB6813433B61114A3B69D3607B6958
:101A800001337B613B681A687B6922FA03F3002B00
:101A90007FF478AE00BF1C37BD465DF8047B70470D
:101AA0000010024000000140000400480008004807
:101AB000000C0048001000480014004800180048BE
:101AC0000004014080B483B000AF78600B467B8097
:101AD00013467B707B78002B03D07A887B689A61F1
:101AE00002E07A887B689A6200BF0C37BD465DF8D9
:101AF000047B704780B582B000AF0346FB80084B83
:101B00005A69FB881340002B06D0054AFB885361B5
:101B1000FB88184600F006F800BF0837BD4680BDB8
:101B20000004014080B483B000AF0346FB8000BFD7
:101B30000C37BD465DF8047B7047000080B400AFF1
:101B4000044B1B6803F4C0631846BD465DF8047B74
:101B5000704700BF0070004080B485B000AF78606F
:101B60007B68B3F5007F30D1234B1B6803F4C0635F
:101B7000B3F5007F38D0204A1F4B1B6823F4C063A5
:101B800043F4007313601D4B1B68322202FB03F306
:101B90001B4AA2FB03239B0C0133FB6002E0FB68A2
:101BA000013BFB60144B5B6903F48063B3F5806F0A
:101BB00002D1FB68002BF2D10F4B5B6903F4806309
:101BC000B3F5806F10D103230FE00B4B1B6803F4B8
:101BD000C063B3F5806F07D0074A074B1B6823F437
:101BE000C06343F480631360002318461437BD4676
:101BF0005DF8047B704700BF0070004000000020CB
:101C000083DE1B4380B588B000AF78607B68002B13
:101C100001D10123D4E3A14B9B6803F00C03BB610A
:101C20009E4BDB6803F003037B617B681B6803F05A
:101C30001003002B00F0E480BB69002B07D0BB69C8
:101C40000C2B40F08B807B69012B40F08780934BFD
:101C50001B6803F00203002B05D07B689B69002BF7
:101C600001D10123ACE37B681A6A8C4B1B6803F03B
:101C70000803002B04D0894B1B6803F0F00305E038
:101C8000864BD3F894301B0903F0F0039A4223D912
:101C90007B681B6A184600F03FFD0346002B01D00D
:101CA00001238DE37D4A7D4B1B6843F008031360DD
:101CB0007A497A4B1B6823F0F0027B681B6A134356
:101CC0000B607649754B5B6823F47F427B68DB6968
:101CD0001B0213434B6025E0704A704B1B6843F0B6
:101CE000080313606D496D4B1B6823F0F0027B689D
:101CF0001B6A13430B606949684B5B6823F47F429E
:101D00007B68DB691B0213434B60BB69002B09D165
:101D10007B681B6A184600F0FFFC0346002B01D0CD
:101D200001234DE300F036FC01465C4B9B681B0928
:101D300003F00F035A4AD35C03F01F0321FA03F3A5
:101D4000584A1360584B1B681846FFF74FF9034673
:101D5000FB73FB7B002B52D0FB7B31E37B689B69E1
:101D6000002B32D04D4A4D4B1B6843F001031360EA
:101D7000FFF78CF9386108E0FFF788F902463B6904
:101D8000D31A022B01D903231AE3444B1B6803F037
:101D90000203002BF0D0414A404B1B6843F008037C
:101DA00013603E493D4B1B6823F0F0027B681B6AC1
:101DB00013430B603949394B5B6823F47F427B68DE
:101DC000DB691B0213434B601AE0344A334B1B6838
:101DD00023F001031360FFF759F9386108E0FFF7BA
:101DE00055F902463B69D31A022B01D90323E7E2D6
:101DF0002A4B1B6803F00203002BF0D100E000BF68
:101E00007B681B6803F00103002B74D0BB69082BAF
:101E100005D0BB690C2B0ED17B69032B0BD11F4B5B
:101E20001B6803F40033002B64D07B685B68002BD5
:101E300060D10123C4E27B685B68B3F5803F06D1C3
:101E4000164A164B1B6843F4803313601DE07B6811
:101E50005B68B3F5A02F0CD1104A104B1B6843F4FC
:101E6000802313600D4A0D4B1B6843F480331360CD
:101E70000BE00A4A094B1B6823F480331360074ABE
:101E8000064B1B6823F4802313607B685B68002B80
:101E90001CD0FFF7FBF8386111E000BF00100240D2
:101EA000B44A00080000002004000020FFF7EEF80C
:101EB00002463B69D31A642B01D9032380E2AF4B5E
:101EC0001B6803F40033002BF0D014E0FFF7DEF8BA
:101ED000386108E0FFF7DAF802463B69D31A642B51
:101EE00001D903236CE2A54B1B6803F40033002BDC
:101EF000F0D100E000BF7B681B6803F00203002BF9
:101F000060D0BB69042B05D0BB690C2B19D17B6950
:101F1000022B16D1994B1B6803F48063002B05D06C
:101F20007B68DB68002B01D1012349E29349934B85
:101F30005B6823F0F8527B681B691B0613434B60F8
:101F400040E07B68DB68002B23D08C4A8B4B1B68FE
:101F500043F480731360FFF799F8386108E0FFF7E6
:101F600095F802463B69D31A022B01D9032327E2D5
:101F7000824B1B6803F48063002BF0D07F497F4BBA
:101F80005B6823F0F8527B681B691B0613434B60A8
:101F900018E07A4A794B1B6823F480731360FFF7CB
:101FA00075F8386108E0FFF771F802463B69D31A0B
:101FB000022B01D9032303E2704B1B6803F48063F7
:101FC000002BF0D17B681B6803F00803002B3CD08A
:101FD0007B685B69002B1CD0684A684BD3F894304F
:101FE00043F00103C2F89430FFF750F8386108E07D
:101FF000FFF74CF802463B69D31A022B01D90323A1
:10200000DEE15E4BD3F8943003F00203002BEFD0F7
:102010001BE05A4A594BD3F8943023F00103C2F81D
:102020009430FFF733F8386108E0FFF72FF80246E5
:102030003B69D31A022B01D90323C1E14F4BD3F8DB
:10204000943003F00203002BEFD17B681B6803F090
:102050000403002B00F0A6800023FB77474B9B6D09
:1020600003F08053002B0DD1444A444B9B6D43F049
:1020700080539365414B9B6D03F08053BB60BB68FD
:102080000123FB773E4B1B6803F48073002B18D1B0
:102090003B4A3B4B1B6843F480731360FEF7F6FF2B
:1020A000386108E0FEF7F2FF02463B69D31A022BC3
:1020B00001D9032384E1324B1B6803F48073002BA6
:1020C000F0D07B689B68012B08D12C4A2B4BD3F8AE
:1020D000903043F00103C2F8903024E07B689B68A5
:1020E000052B10D1254A254BD3F8903043F004033B
:1020F000C2F89030214A214BD3F8903043F00103CD
:10210000C2F890300FE01D4A1C4BD3F8903023F0FA
:102110000103C2F89030194A184BD3F8903023F0DD
:102120000403C2F890307B689B68002B16D0FEF742
:10213000ADFF38610AE0FEF7A9FF02463B69D31AFA
:1021400041F28832934201D9032339E10B4BD3F892
:10215000903003F00203002BEDD01AE0FEF796FF5B
:1021600038610FE0FEF792FF02463B69D31A41F255
:102170008832934206D9032322E100BF00100240B7
:1021800000700040904BD3F8903003F00203002B16
:10219000E8D1FB7F012B05D18B4A8B4B9B6D23F044
:1021A000805393657B689B6A002B00F008817B68F5
:1021B0009B6A022B40F0D080834BDB687B617B699C
:1021C00003F003027B68DB6A9A4230D17B6903F03B
:1021D00070027B681B6B013B1B019A4227D17B6914
:1021E00003F4FE427B685B6B1B029A421FD17B6942
:1021F00003F400337A68926B072A14BF012200228D
:10220000D2B2934213D17B6903F4C0027B68DB6BCB
:102210005B08013B5B059A4209D17B6903F0C06210
:102220007B681B6C5B08013B5B069A426ED0BB6906
:102230000C2B69D0644B1B6803F08063002B05D125
:10224000614B1B6803F08053002B01D00123B7E0E2
:102250005D4A5D4B1B6823F080731360FEF716FF29
:10226000386108E0FEF712FF02463B69D31A022BE1
:1022700001D90323A4E0544B1B6803F00073002B27
:10228000F0D15148504BDA68504B13407A68D16A0C
:102290007A68126B013A120111437A68526B12028A
:1022A00011437A68D26B5208013A520511437A6899
:1022B000126C5208013A520611437A68926B120965
:1022C00052040A431343C3603F4A3F4B1B6843F029
:1022D000807313603C4A3C4BDB6843F08073D360EF
:1022E000FEF7D4FE386108E0FEF7D0FE02463B69F7
:1022F000D31A022B01D9032362E0334B1B6803F08E
:102300000073002BF0D05AE0012359E02E4B1B68DC
:1023100003F00073002B52D12B4A2B4B1B6843F068
:1023200080731360284A284BDB6843F08073D360C6
:10233000FEF7ACFE386108E0FEF7A8FE02463B69F6
:10234000D31A022B01D903233AE01F4B1B6803F079
:102350000073002BF0D032E0BB690C2B2DD01A4A51
:10236000194B1B6823F080731360174B1B6803F035
:102370002053002B05D1144A134BDB6823F00303D1
:10238000D360114A104BDB6823F0887323F4803349
:10239000D360FEF77BFE386108E0FEF777FE024669
:1023A0003B69D31A022B01D9032309E0064B1B68B2
:1023B00003F00073002BF0D101E0012300E00023C3
:1023C00018462037BD4680BD001002408C809DF924
:1023D00080B584B000AF786039607B68002B01D194
:1023E0000123C8E0664B1B6803F007023B689A4272
:1023F00010D26349624B1B6823F007023B6813430A
:102400000B605F4B1B6803F007023B689A4201D0E8
:102410000123B0E07B681B6803F00103002B4CD064
:102420007B685B68032B07D1564B1B6803F0007376
:10243000002B21D101239EE07B685B68022B07D132
:10244000504B1B6803F40033002B15D1012392E09D
:102450007B685B68002B07D14A4B1B6803F00203C3
:10246000002B09D1012386E0464B1B6803F48063EF
:10247000002B01D101237EE04249424B9B6823F0AF
:1024800003027B685B6813438B60FEF7FFFDF86017
:102490000AE0FEF7FBFD0246FB68D31A41F28832E0
:1024A000934201D9032366E0364B9B6803F00C028C
:1024B0007B685B689B009A42EBD17B681B6803F0EA
:1024C0000203002B08D02F492E4B9B6823F0F0020B
:1024D0007B689B6813438B60294B1B6803F00702E2
:1024E0003B689A4210D92649254B1B6823F0070206
:1024F0003B6813430B60224B1B6803F007023B68E9
:102500009A4201D0012336E07B681B6803F0040384
:10251000002B08D01B491B4B9B6823F4E0627B68AF
:10252000DB6813438B607B681B6803F00803002B98
:1025300009D01449134B9B6823F460527B681B69D4
:10254000DB0013438B6000F025F801460D4B9B68C0
:102550001B0903F00F030C4AD35C03F01F0321FA9D
:1025600003F30A4A13600A4B1B681846FEF73EFD48
:102570000346FB72FB7A18461037BD4680BD00BF8C
:102580000020024000100240B44A00080000002071
:102590000400002080B489B000AF0023FB61002359
:1025A000BB613D4B9B6803F00C033B613A4BDB681E
:1025B00003F00303FB603B69002B05D03B690C2B48
:1025C00021D1FB68012B1ED1334B1B6803F008039C
:1025D000002B07D1304BD3F894301B0A03F00F03C4
:1025E000FB6105E02C4B1B681B0903F00F03FB612B
:1025F0002A4AFB6952F82330FB613B69002B0DD15D
:10260000FB69BB610AE03B69042B02D1244BBB612F
:1026100004E03B69082B01D1224BBB613B690C2BC9
:1026200033D11D4BDB6803F00303BB60BB68022B97
:1026300002D0032B03D005E0194B7B6105E0194B59
:102640007B6102E0FB697B6100BF134BDB681B0908
:1026500003F0070301337B600F4BDB681B0A03F0B9
:102660007F037A6902FB03F27B68B2FBF3F37B61C1
:10267000094BDB685B0E03F0030301335B003B6037
:102680007A693B68B2FBF3F3BB61BB691846243738
:10269000BD465DF8047B704700100240CC4A00083C
:1026A0000024F40000127A0080B400AF034B1B68D2
:1026B0001846BD465DF8047B704700BF000000204F
:1026C00080B500AFFFF7F0FF0146064B9B681B0A81
:1026D00003F00703044AD35C03F01F0321FA03F35A
:1026E000184680BD00100240C44A000880B500AF03
:1026F000FFF7DAFF0146064B9B68DB0A03F007038E
:10270000044AD35C03F01F0321FA03F3184680BD8B
:1027100000100240C44A000880B586B000AF78605F
:1027200000233B612A4B9B6D03F08053002B03D0A9
:10273000FFF704FA786114E0254A254B9B6D43F0BE
:1027400080539365224B9B6D03F08053FB60FB68C5
:10275000FFF7F4F978611E4A1D4B9B6D23F08053FF
:1027600093657B69B3F5007F0BD17B68802B19D90A
:102770007B68A02B02D902233B6113E001233B615C
:1027800010E07B68802B02D903233B610AE07B6861
:10279000802B02D102233B6104E07B68702B01D1C6
:1027A00001233B610B490B4B1B6823F007023B697C
:1027B00013430B60074B1B6803F007023B699A4207
:1027C00001D0012300E0002318461837BD4680BD24
:1027D000001002400020024080B586B000AF786053
:1027E0000023FB740023BB747B681B6803F4006345
:1027F000002B3FD07B685B6EB3F5800F1CD0B3F528
:10280000800F02D8002B0ED01FE0B3F5000F03D0CD
:10281000B3F5400F1CD018E0854A854BDB6843F4C4
:102820008033D36015E07B6804330021184600F044
:10283000B9FA0346FB740CE07B682033002118468C
:1028400000F0A0FB0346FB7403E00123FB7400E0EF
:1028500000BFFB7C002B0BD17549754BD3F888303A
:1028600023F440027B685B6E1343C1F8883001E0BB
:10287000FB7CBB747B681B6803F48053002B3FD048
:102880007B689B6EB3F1807F1CD0B3F1807F02D850
:10289000002B0ED01FE0B3F1007F03D0B3F1407FD7
:1028A0001CD018E0624A624BDB6843F48033D3608B
:1028B00015E07B6804330021184600F073FA0346E4
:1028C000FB740CE07B6820330021184600F05AFBB3
:1028D0000346FB7403E00123FB7400E000BFFB7CB4
:1028E000002B0BD15249524BD3F8883023F0407261
:1028F0007B689B6E1343C1F8883001E0FB7CBB749E
:102900007B681B6803F40033002B00F0A0800023D9
:102910007B74474B9B6D03F08053002B01D1012347
:1029200000E00023002B0DD0414A414B9B6D43F04A
:10293000805393653E4B9B6D03F08053BB60BB6837
:1029400001237B743B4A3B4B1B6843F48073136049
:10295000FEF79CFBF86009E0FEF798FB0246FB6877
:10296000D31A022B02D90323FB7405E0314B1B68F9
:1029700003F48073002BEFD0FB7C002B5CD12C4B3D
:10298000D3F8903003F440737B617B69002B1FD038
:102990007B68D3F884207B699A4219D0244BD3F802
:1029A000903023F440737B61214A214BD3F890305F
:1029B00043F48033C2F890301D4A1D4BD3F8903059
:1029C00023F48033C2F89030194A7B69C2F8903002
:1029D0007B6903F00103002B16D0FEF757FBF8606C
:1029E0000BE0FEF753FB0246FB68D31A41F2883234
:1029F000934202D90323FB7406E00D4BD3F89030C9
:102A000003F00203002BECD0FB7C002B0CD1084917
:102A1000074BD3F8903023F440727B68D3F88430AE
:102A20001343C1F8903009E0FB7CBB7406E000BFA3
:102A30000010024000700040FB7CBB747B7C012BCB
:102A400005D19E4A9D4B9B6D23F0805393657B6817
:102A50001B6803F00103002B0AD09849974BD3F869
:102A6000883023F003027B689B6B1343C1F88830E6
:102A70007B681B6803F00203002B0AD08F498F4B41
:102A8000D3F8883023F00C027B68DB6B1343C1F86A
:102A900088307B681B6803F00403002B0AD0874949
:102AA000864BD3F8883023F030027B681B6C1343CD
:102AB000C1F888307B681B6803F00803002B0AD03C
:102AC0007E497E4BD3F8883023F0C0027B685B6C74
:102AD0001343C1F888307B681B6803F01003002B98
:102AE0000AD07649754BD3F8883023F440727B685E
:102AF0009B6C1343C1F888307B681B6803F020038C
:102B0000002B0AD06D496D4BD3F8883023F4406216
:102B10007B68DB6C1343C1F888307B681B6803F467
:102B20000073002B0AD06549644BD3F8883023F436
:102B300040227B68DB6D1343C1F888307B681B68DB
:102B400003F48063002B0AD05C495C4BD3F88830D7
:102B500023F440127B681B6E1343C1F888307B68F6
:102B60001B6803F04003002B0AD05449534BD3F8A1
:102B7000883023F440527B681B6D1343C1F88830C2
:102B80007B681B6803F08003002B0AD04B494B4B3A
:102B9000D3F8883023F440427B685B6D1343C1F85F
:102BA00088307B681B6803F48073002B0AD043498C
:102BB000424BD3F8883023F440327B689B6D13433B
:102BC000C1F888307B681B6803F40053002B28D0C1
:102BD0003A493A4BD3F8883023F040627B68DB6E89
:102BE0001343C1F888307B68DB6EB3F1006F06D108
:102BF000324A324BDB6843F48013D36011E07B68C8
:102C0000DB6EB3F1806F0CD17B6804330121184671
:102C100000F0C8F80346FB74FB7C002B01D0FB7C62
:102C2000BB747B681B6803F40023002B28D0234966
:102C3000224BD3F8883023F040627B681B6F13432C
:102C4000C1F888307B681B6FB3F1006F06D11B4A57
:102C50001A4BDB6843F48013D36011E07B681B6F71
:102C6000B3F1806F0CD17B6804330121184600F06A
:102C700099F80346FB74FB7C002B01D0FB7CBB74F2
:102C80007B681B6803F48023002B2BD00B490B4B74
:102C9000D3F8883023F040627B685B6F1343C1F840
:102CA00088307B685B6FB3F1006F09D1034A034B37
:102CB000DB6843F48013D36014E000BF00100240CF
:102CC0007B685B6FB3F1806F0CD17B6804330121AB
:102CD000184600F067F80346FB74FB7C002B01D01C
:102CE000FB7CBB747B681B6803F48043002B2FD0F4
:102CF0002B492B4BD3F8883023F040527B689B6FD5
:102D00001343C1F888307B689B6FB3F1805F0DD1AE
:102D10007B6804330221184600F044F80346FB7434
:102D2000FB7C002B14D0FB7CBB7411E07B689B6F99
:102D3000B3F1005F0CD17B6820330221184600F00C
:102D400021F90346FB74FB7C002B01D0FB7CBB7498
:102D50007B681B6803F40043002B0AD01049104B1A
:102D6000D3F8883023F080427B68DB6F1343C1F8CF
:102D700088307B681B6803F48033002B0BD0084934
:102D8000074BD3F8883023F000427B68D3F88030BB
:102D90001343C1F88830BB7C18461837BD4680BD48
:102DA0000010024080B584B000AF78603960002325
:102DB000FB73734BDB6803F00303002B18D0704BDD
:102DC000DB6803F003027B681B689A420DD17B68C5
:102DD0001B68002B09D06A4BDB681B0903F0070353
:102DE0005A1C7B685B689A4244D00123FB7341E024
:102DF0007B681B68022B0CD0032B13D0012B20D136
:102E00005F4B1B6803F00203002B1DD10123FB73F2
:102E10001AE05B4B1B6803F48063002B16D101237F
:102E2000FB7313E0564B1B6803F40033002B0FD1E8
:102E3000534B1B6803F48023002B09D10123FB7340
:102E400006E00123FB7304E000BF02E000BF00E0E6
:102E500000BFFB7B002B0DD14948494BDB6823F0B9
:102E600073027B6819687B685B68013B1B010B433D
:102E70001343C360FB7B002B7DD1414A404B1B6851
:102E800023F080631360FEF701F9B86009E0FEF7F4
:102E9000FDF80246BB68D31A022B02D90323FB7349
:102EA00005E0374B1B6803F00063002BEFD1FB7B81
:102EB000002B60D13B68002B11D13148304B1B698E
:102EC00023F41F3323F440737A68926811027A68FE
:102ED000D268120952040A431343036127E03B6896
:102EE000012B12D12648264B1B6923F4C00323F47F
:102EF000FE437A68926811027A6812695208013AB0
:102F000052050A431343036111E01D481C4B1B6922
:102F100023F0C06323F4FE437A68926811027A6852
:102F200052695208013A52060A4313430361144A94
:102F3000134B1B6843F080631360FEF7A7F8B8607B
:102F400009E0FEF7A3F80246BB68D31A022B02D9A8
:102F50000323FB7305E00A4B1B6803F00063002B9F
:102F6000EFD0FB7B002B06D10549054B1A697B6826
:102F70009B6913430B61FB7B18461037BD4680BD30
:102F80000010024080B584B000AF78603960002343
:102F9000FB73684BDB6803F00303002B18D0654B11
:102FA000DB6803F003027B681B689A420DD17B68E3
:102FB0001B68002B09D05F4BDB681B0903F007037C
:102FC0005A1C7B685B689A4244D00123FB7341E042
:102FD0007B681B68022B0CD0032B13D0012B20D154
:102FE000544B1B6803F00203002B1DD10123FB731C
:102FF0001AE0504B1B6803F48063002B16D10123A9
:10300000FB7313E04B4B1B6803F40033002B0FD111
:10301000484B1B6803F48023002B09D10123FB7369
:1030200006E00123FB7304E000BF02E000BF00E004
:1030300000BFFB7B002B0DD13E483E4BDB6823F0ED
:1030400073027B6819687B685B68013B1B010B435B
:103050001343C360FB7B002B67D1364A354B1B689B
:1030600023F080531360FEF711F8B86009E0FEF713
:103070000DF80246BB68D31A022B02D90323FB7357
:1030800005E02C4B1B6803F00053002BEFD1FB7BBA
:10309000002B4AD13B68002B11D12648254B5B6998
:1030A00023F41F3323F440737A68926811027A681C
:1030B000D268120952040A431343436111E01D48C8
:1030C0001C4B5B6923F0C06323F4FE437A6892686B
:1030D00011027A6812695208013A52060A431343F0
:1030E0004361144A134B1B6843F080531360FDF790
:1030F000CDFFB86009E0FDF7C9FF0246BB68D31AEF
:10310000022B02D90323FB7305E00A4B1B6803F073
:103110000053002BEFD0FB7B002B06D10549054B5C
:103120005A697B685B6913434B61FB7B1846103718
:10313000BD4680BD0010024080B582B000AF78600F
:103140007B68002B01D1012340E07B685B6F002B83
:1031500006D17B68002283F870207868FDF7F2FDC5
:103160007B6824225A677B681B687A681268126839
:1031700022F001021A60786800F0E8FA0346012B99
:1031800001D1012322E07B685B6A002B02D07868C2
:1031900000F060FD7B681B687A681268526822F450
:1031A00090425A607B681B687A681268926822F0C5
:1031B0002A029A607B681B687A681268126842F07B
:1031C00001021A60786800F0E7FD034618460837E8
:1031D000BD4680BD80B58AB002AFF860B9603B6083
:1031E0001346FB80FB685B6F202B40F08180BB683F
:1031F000002B02D0FB88002B01D1012379E0FB6872
:1032000093F87030012B01D1022372E0FB68012298
:1032100083F87020FB680022DA67FB6821225A6776
:10322000FDF734FF7861FB68FA88A3F85020FB684B
:10323000FA88A3F85220FB689B68B3F5805F08D139
:10324000FB681B69002B04D10023FB61BB68BB61D9
:1032500003E0BB68FB610023BB61FB68002283F8CD
:1032600070202DE03B6800937B6900228021F86884
:1032700000F0D7FD0346002B01D0032339E0FB69A2
:10328000002B0BD1FB681B68BA691288C2F30802D5
:1032900092B21A85BB690233BB6108E0FB681B6808
:1032A000FA69127892B21A85FB690133FB61FB68F7
:1032B000B3F852309BB2013B9AB2FB68A3F852209C
:1032C000FB68B3F852309BB2002BCBD13B68009324
:1032D0007B6900224021F86800F0A3FD0346002B23
:1032E00001D0032305E0FB6820225A67002300E099
:1032F000022318462037BD4680BD80B58AB002AF94
:10330000F860B9603B601346FB80FB689B6F202B25
:1033100040F0BB80BB68002B02D0FB88002B01D1A2
:103320000123B3E0FB6893F87030012B01D1022335
:10333000ACE0FB68012283F87020FB680022DA67AA
:10334000FB6822229A67FDF7A1FE7861FB68FA8884
:10335000A3F85820FB68FA88A3F85A20FB689B68FA
:10336000B3F5805F0ED1FB681B69002B05D1FB68AC
:1033700040F2FF12A3F85C202DE0FB68FF22A3F8C7
:103380005C2028E0FB689B68002B0DD1FB681B6963
:10339000002B04D1FB68FF22A3F85C201BE0FB6834
:1033A0007F22A3F85C2016E0FB689B68B3F1805F86
:1033B0000DD1FB681B69002B04D1FB687F22A3F8A9
:1033C0005C2008E0FB683F22A3F85C2003E0FB6878
:1033D0000022A3F85C20FB68B3F85C307B82FB68BA
:1033E0009B68B3F5805F08D1FB681B69002B04D193
:1033F0000023FB61BB68BB6103E0BB68FB6100238A
:10340000BB61FB68002283F8702033E03B680093C7
:103410007B6900222021F86800F003FD0346002BA1
:1034200001D0032332E0FB69002B0CD1FB681B6841
:103430009B8C9AB27B8A13409AB2BB691A80BB6993
:103440000233BB610DE0FB681B689B8C9BB2DAB258
:103450007B8ADBB21340DAB2FB691A70FB69013375
:10346000FB61FB68B3F85A309BB2013B9AB2FB6830
:10347000A3F85A20FB68B3F85A309BB2002BC5D191
:10348000FB6820229A67002300E0022318462037B9
:10349000BD4680BD80B588B000AF78607B681B6892
:1034A000DB69FB617B681B681B68BB617B681B6811
:1034B0009B687B61FA6940F60F0313403B613B69EF
:1034C000002B13D1FB6903F02003002B0ED0BB6946
:1034D00003F02003002B09D07B681B6E002B00F04B
:1034E00014817B681B6E786898470EE13B69002B5E
:1034F00000F0D6807B6903F00103002B05D1BA6987
:10350000864B1340002B00F0CB80FB6903F00103D6
:10351000002B0ED0BB6903F48073002B09D07B68AD
:103520001B6801221A627B68DB6F43F001027B6833
:10353000DA67FB6903F00203002B0ED07B6903F00E
:103540000103002B09D07B681B6802221A627B688A
:10355000DB6F43F004027B68DA67FB6903F0040366
:10356000002B0ED07B6903F00103002B09D07B6890
:103570001B6804221A627B68DB6F43F002027B68DF
:10358000DA67FB6903F00803002B13D0BB6903F073
:103590002003002B04D17B6903F00103002B09D029
:1035A0007B681B6808221A627B68DB6F43F00802A5
:1035B0007B68DA67FB6903F40063002B0FD0BB69FB
:1035C00003F08063002B0AD07B681B684FF4006215
:1035D0001A627B68DB6F43F020027B68DA677B68E6
:1035E000DB6F002B00F09380FB6903F02003002BBE
:1035F0000CD0BB6903F02003002B07D07B681B6E47
:10360000002B03D07B681B6E786898477B68DB6F64
:10361000FB607B681B689B6803F04003402B04D071
:10362000FB6803F02803002B31D0786800F074FCAD
:103630007B681B689B6803F04003402B23D17B68A9
:103640001B687A681268926822F040029A607B6870
:10365000DB6E002B13D07B68DB6E314A9A637B688C
:10366000DB6E1846FEF744F80346002B16D07B6845
:10367000DB6E9B6B7A68D26E104698470EE07868D6
:1036800000F05AF80AE0786800F056F806E078682A
:1036900000F052F87B680022DA6738E000BF36E0BD
:1036A000FB6903F48013002B0DD07B6903F48003C6
:1036B000002B08D07B681B684FF480121A62786870
:1036C00000F079FC26E0FB6903F08003002B0DD0AD
:1036D000BB6903F08003002B08D07B685B6E002B76
:1036E00017D07B685B6E7868984712E0FB6903F03F
:1036F0004003002B0ED0BB6903F04003002B09D020
:10370000786800F03FFC00BF04E000BF02E000BFAB
:1037100000E000BF2037BD4680BD00BF200100048F
:10372000593F000880B483B000AF786000BF0C3709
:10373000BD465DF8047B704780B483B000AF78600D
:1037400000BF0C37BD465DF8047B7047B0B588B04C
:1037500000AF78600023BB767B689A687B681B6942
:103760001A437B685B691A437B68DB691343FB611F
:103770007B681A687B681B681968AC4B0B40F96959
:103780000B4313607B681B687A681268526822F4E6
:1037900040517A68D2680A435A607B689B69FB6132
:1037A0007B681B68A24A934204D07B681B6AFA6953
:1037B0001343FB617B681B687A681268926822F485
:1037C0003061FA690A439A607B681B68994A9342A0
:1037D00022D1994BD3F8883003F00303032B17D879
:1037E00001A252F823F000BFF9370008053800089D
:1037F000FF3700080B3800080123FB76E8E00223BE
:10380000FB76E5E00423FB76E2E00823FB76DFE0CD
:103810001023FB7600BFDBE07B681B68874A93427E
:1038200034D1854BD3F8883003F00C030C2B29D806
:1038300001A252F823F000BF6D3800088538000857
:103840008538000885380008793800088538000870
:103850008538000885380008733800088538000866
:1038600085380008853800087F3800080023FB767B
:10387000AEE00223FB76ABE00423FB76A8E008234E
:10388000FB76A5E01023FB7600BFA1E07B681B68F8
:103890006B4A934220D1684BD3F8883003F0300351
:1038A000102B0FD0102B02D8002B05D010E0202BAE
:1038B00005D0302B09D00BE00023FB7688E00223F3
:1038C000FB7685E00423FB7682E00823FB767FE02D
:1038D0001023FB7600BF7BE07B681B68594A93424C
:1038E00020D1554BD3F8883003F0C003402B0FD0C4
:1038F000402B02D8002B05D010E0802B05D0C02B28
:1039000009D00BE00023FB7662E00223FB765FE048
:103910000423FB765CE00823FB7659E01023FB765A
:1039200000BF55E07B681B68474A934224D1424B55
:10393000D3F8883003F44073B3F5807F12D0B3F529
:10394000807F02D8002B07D012E0B3F5007F06D0AD
:10395000B3F5407F09D00BE00023FB7638E002236B
:10396000FB7635E00423FB7632E00823FB762FE07C
:103970001023FB7600BF2BE07B681B682C4A934228
:1039800024D12D4BD3F8883003F44063B3F5806F16
:1039900012D0B3F5806F02D8002B07D012E0B3F538
:1039A000006F06D0B3F5406F09D00BE00023FB7623
:1039B0000EE00223FB760BE00423FB7608E00823ED
:1039C000FB7605E01023FB7600BF01E01023FB76B9
:1039D0007B681B68164A934240F08080FB7E082B70
:1039E00036D801A252F823F00D3A0008513A0008E7
:1039F000153A0008513A00081B3A0008513A0008ED
:103A0000513A0008513A0008233A0008FEF758FEE0
:103A1000786122E00D4B7B611FE0FEF7BBFD786112
:103A20001BE04FF400437B6117E000BFF369FFEF39
:103A30000080004000380140001002400044004077
:103A400000480040004C0040005000400024F400BA
:103A500000237B610123BB7600BF7B69002B00F054
:103A6000EB807B685A6813465B001A447B699A4274
:103A700005D87B685B681A037B699A4202D20123EE
:103A8000BB76D9E07B691A464FF000031D0245EA78
:103A9000126514027B685B685B081A464FF00003EE
:103AA000A01845EB03017B685B684FF000041A46E1
:103AB0002346FCF7E5FB03460C463B613B69B3F547
:103AC000407F08D33B69B3F5801F04D27B681B6835
:103AD0003A69DA60B0E00123BB76ADE07B68DB6970
:103AE000B3F5004F5CD1FB7E082B28D801A252F819
:103AF00023F000BF193B0008213B0008293B0008C8
:103B00003F3B00082F3B00083F3B00083F3B0008BD
:103B10003F3B0008373B0008FEF7D2FD786113E019
:103B2000FEF7E4FD78610FE0494B7B610CE0FEF7A6
:103B300031FD786108E04FF400437B6104E000232D
:103B40007B610123BB7600BF7B69002B74D07B694E
:103B50005A007B685B685B081A447B685B68B2FB51
:103B6000F3F39BB23B613B690F2B16D93B69B3F56D
:103B7000803F12D23B699BB223F00F03FB813B696C
:103B80005B089BB203F007039AB2FB891343FB81E6
:103B90007B681B68FA89DA604EE00123BB764BE054
:103BA000FB7E082B27D801A252F823F0D13B000856
:103BB000D93B0008E13B0008F73B0008E73B000861
:103BC000F73B0008F73B0008F73B0008EF3B000815
:103BD000FEF776FD786113E0FEF788FD78610FE06F
:103BE0001B4B7B610CE0FEF7D5FC786108E04FF4DD
:103BF00000437B6104E000237B610123BB7600BFAF
:103C00007B69002B18D07B685B685A087B691A4473
:103C10007B685B68B2FBF3F39BB23B613B690F2BA4
:103C200008D93B69B3F5803F04D27B681B683A69C9
:103C3000DA6001E00123BB767B6800221A667B68AC
:103C400000225A66BB7E18462037BD46B0BD00BF75
:103C50000024F40080B483B000AF78607B685B6AB6
:103C600003F00103002B0AD07B681B687A68126896
:103C7000526822F400317A68926A0A435A607B687B
:103C80005B6A03F00203002B0AD07B681B687A682A
:103C90001268526822F480317A68D26A0A435A6004
:103CA0007B685B6A03F00403002B0AD07B681B6807
:103CB0007A681268526822F480217A68126B0A438B
:103CC0005A607B685B6A03F00803002B0AD07B68AC
:103CD0001B687A681268526822F400417A68526B55
:103CE0000A435A607B685B6A03F01003002B0AD01A
:103CF0007B681B687A681268926822F480517A683F
:103D0000926B0A439A607B685B6A03F02003002B86
:103D10000AD07B681B687A681268926822F40051A6
:103D20007A68D26B0A439A607B685B6A03F040034F
:103D3000002B1AD07B681B687A681268526822F4DC
:103D400080117A68126C0A435A607B681B6CB3F569
:103D5000801F0AD17B681B687A681268526822F457
:103D6000C0017A68526C0A435A607B685B6A03F050
:103D70008003002B0AD07B681B687A68126852683F
:103D800022F400217A68926C0A435A6000BF0C3713
:103D9000BD465DF8047B704780B586B002AF7860A1
:103DA0007B680022DA67FDF771F9F8607B681B68B1
:103DB0001B6803F00803082B0ED16FF07E430093BD
:103DC000FB6800224FF40011786800F02AF80346DF
:103DD000002B01D0032320E07B681B681B6803F0E5
:103DE0000403042B0ED16FF07E430093FB68002286
:103DF0004FF48001786800F014F80346002B01D0DE
:103E000003230AE07B6820225A677B6820229A6796
:103E10007B68002283F87020002318461037BD46C7
:103E200080BD80B584B000AFF860B9603B601346D8
:103E3000FB715DE0BB69B3F1FF3F59D0FDF726F997
:103E400002463B68D21ABB699A4202D8BB69002B72
:103E50001BD1FB681B68FA681268126822F4D072E2
:103E60001A60FB681B68FA681268926822F0010207
:103E70009A60FB6820225A67FB6820229A67FB68D9
:103E8000002283F87020032342E0FB681B681B6854
:103E900003F00403002B2BD0FB681B68DB6903F4E1
:103EA0000063B3F5006F23D1FB681B684FF4006219
:103EB0001A62FB681B68FA681268126822F4D072F2
:103EC0001A60FB681B68FA681268926822F00102A7
:103ED0009A60FB6820225A67FB6820229A67FB6879
:103EE0002022DA67FB68002283F8702003230FE0AA
:103EF000FB681B68DA69BB681A40BB689A420CBF52
:103F000001230023DBB21A46FB799A4292D00023A8
:103F100018461037BD4680BD80B483B000AF7860CE
:103F20007B681B687A681268126822F490721A60C3
:103F30007B681B687A681268926822F001029A60B6
:103F40007B6820229A677B6800221A6600BF0C37C4
:103F5000BD465DF8047B704780B584B000AF7860E3
:103F60007B689B6AFB60FB680022A3F85A20FB6811
:103F70000022A3F85220F868FFF7DEFB00BF1037DD
:103F8000BD4680BD80B582B000AF78607B681B689D
:103F90007A681268126822F040021A607B68202258
:103FA0005A677B6800225A667868FFF7BBFB00BF40
:103FB0000837BD4680BD80B483B000AF786000BFD5
:103FC0000C37BD465DF8047B70470000DFF834D045
:103FD000FCF7B6FF002103E00B4B5B584350043164
:103FE0000A480B4B42189A42F6D30A4A02E00023D1
:103FF00042F8043B084B9A42F9D300F017F8FCF75B
:10400000C7FAFEE700800120404B000800000020B6
:10401000700000207000002090020020FEE70000E9
:10402000014B1868704700BF0C00002070B50D4EA2
:104030000D4CA41BA4100025A54209D10B4E0C4C1D
:1040400000F03CFCA41BA4100025A54205D170BDC6
:1040500056F8253098470135EEE756F82530984751
:104060000135F2E7384B0008384B0008384B0008A0
:104070003C4B000802440346934200D1704703F8CA
:10408000011BF9E710B59AB04FF402740091049146
:104090006FF00041029105914FF6FF71ADF80E10DF
:1040A0006946ADF80C4000F06BF8009B00221A70D6
:1040B0001AB010BD13460A46014602480068FFF7D1
:1040C000E1BF00BF0C0000202DE9F0478E689E4242
:1040D00082460C469146984635D88A8912F4906FEC
:1040E00031D0256809696F1A6569022305EB45051A
:1040F00095FBF3F508F101033B449D4238BF1D4693
:10410000530531D5294600F039FB064650B90C233A
:10411000CAF80030A38943F04003A3814FF0FF3079
:10412000BDE8F0873A46216900F0B4FAA38923F488
:10413000906343F08003A381266165613E44ED1BDB
:104140002660A5604646464528BF46463246494653
:10415000206800F0AAFAA3689B1BA36023681E4492
:1041600026600020BDE8F0872A4600F065FB064681
:104170000028E1D12169504600F0B2FAC7E70000FB
:104180002DE9F04F9DB0804603938B891C060D46A8
:1041900016460FD50B696BB9402100F0EFFA286085
:1041A000286128B90C23C8F800304FF0FF30C5E073
:1041B00040236B610023099320238DF8293030239D
:1041C0008DF82A304FF0010B37463C4614F8013B7E
:1041D000002B3CD1B7EB060A0BD05346324629469A
:1041E0004046FFF771FF013000F0A380099B534464
:1041F00009933B78002B00F09C8000234FF0FF32A6
:1042000004930793059206938DF853301A93052271
:1042100021785048FBF7E4FF671C049BD8B9D90606
:1042200044BF20228DF853201A0744BF2B228DF85B
:10423000532022782A2A16D0079A00210A202746DE
:1042400001343B78303B092B51D9C9B111E0252B02
:10425000C0D02746B9E73F4A801A0BFA00F018434E
:1042600004903C46D3E7039A111D12680391002A7B
:1042700001DB079204E0524243F0020307920493E9
:104280003B782E2B0ED17B782A2B07F1010132D1FE
:10429000039B1A1D1B680392002BB8BF4FF0FF331E
:1042A000023705932C4C397803222046FBF798FF00
:1042B00038B14023001B03FA00F0049B034304932E
:1042C0000137397825488DF8281006227E1CFBF727
:1042D00087FF002835D0224BFBB9039B073323F01F
:1042E000070308330393099B4B4409936CE700FBD6
:1042F00002320121A3E70023059318460A240F4642
:1043000001313A78303A092A03D9002BCAD00590F6
:10431000C8E704FB00200123F1E703AB00932A4622
:10432000104B04A94046AFF30080B0F1FF3F814637
:10433000D9D1AB895B063FF538AF09981DB0BDE810
:10434000F08F03AB00932A46064B04A9404600F0C9
:1043500081F8EAE7FC4A0008024B0008064B000817
:1043600000000000C94000082DE9F04791461F46B3
:104370008A680B69DDF820809342B8BF1346C9F8FC
:10438000003091F8432006460C4612B10133C9F8BB
:1043900000302368990642BFD9F800300233C9F8CB
:1043A0000030256815F0060507D104F1190AE36805
:1043B000D9F800209B1A9D4229DB94F843302268EB
:1043C000003318BF012392062ED404F1430239466C
:1043D0003046C047013021D02368E568D9F8002075
:1043E00003F00603042B08BFAD1AA36822690CBFB3
:1043F00025EAE57500259342C4BF9B1AED184FF0DE
:1044000000091A344D451BD10020BDE8F087012377
:10441000524639463046C047013003D14FF0FF3095
:10442000BDE8F0870135C2E7E1185A1C302081F859
:104430004300224494F8451082F843100233C4E745
:104440000123224639463046C0470130E6D009F103
:104450000109D7E72DE9F04317460A7E85B06E2A99
:10446000984606460C460C9B01F1430E00F0BC80BA
:104470001AD8632A2ED00AD8002A00F0C880582AF9
:1044800000F08A8004F1420584F842202AE0642A80
:1044900001D0692AF6D121681A6811F0800F23D063
:1044A000111D1960136827E0732A00F0B48008D842
:1044B0006F2A2AD0702AE5D10A6842F020020A60E9
:1044C00003E0752A21D0782ADCD1782284F84520AF
:1044D0006E4964E01A6801F14205111D1960136804
:1044E00084F842300123A3E011F0400F02F10401EF
:1044F0001960D7D0B2F90030002B03DA2D225B42CD
:1045000084F8432062490A2217E02068196810F0F5
:10451000800F03D0081D18600B6806E010F0400FF4
:1045200001F104001860F7D00B8859496F2A14BFB5
:104530000A220822002084F843006568A560002D47
:10454000C0F29C80206820F004002060002B3FD146
:10455000002D40F095807546082A0BD12368DA07B4
:1045600008D5236962689A42DEBF302305F8013C12
:1045700005F1FF35AEEB05032361CDF800803B4626
:1045800003AA21463046FFF7EFFE013055D14FF028
:10459000FF3005B0BDE8F08381F845203C49226832
:1045A000186812F0800F00F104051D6001D0036847
:1045B00002E05506FBD50388D00744BF42F0200235
:1045C00022601BB9226822F0200222601022B1E78B
:1045D0007546B3FBF2F002FB1033CB5C05F8013DEE
:1045E00003460028F5D1B7E708681A68496910F052
:1045F000800F04D0101D18601368196007E010F0D8
:10460000400F02F1040018601368F6D019800023EF
:1046100023617546B1E71A68111D19601568626853
:1046200000212846FBF7DCFD08B1401B6060636891
:104630002361002384F843309FE723692A463946E3
:104640003046C0470130A2D023689B0707D500251C
:1046500004F11909E368039A9B1A9D4205DBE0689F
:10466000039B9842B8BF184693E701234A46394650
:104670003046C04701308AD00135EBE7002BA7D187
:104680000B7884F8423004F1420565E71E4B0008C0
:104690000D4B000810B5431E0A44914200D110BDD5
:1046A00011F8014B03F8014FF7E7884210B501EB11
:1046B000020303D8421E99420CD110BD9842F9D290
:1046C0008118D21AD34200D110BD13F8014D01F860
:1046D000014DF7E711F8014B02F8014FEBE700003D
:1046E00038B50546002945D051F8043C0C1F002B75
:1046F000B8BFE41800F0D6F81F4A1368104633B963
:10470000636014602846BDE8384000F0CCB8A3428E
:104710000CD921686218934204BF1A685B68636011
:1047200004BF521822600460ECE713465A680AB1CD
:10473000A242FAD919685818A0420BD12068014446
:10474000581882421960DDD1106852685A600144DD
:104750001960D7E702D90C232B60D3E72068211812
:104760008A4204BF11685268626004BF0918216060
:104770005C60C7E738BD00BF9400002070B5CD1C59
:1047800025F0030508350C2D38BF0C25002D0646F5
:1047900001DBA94203D90C233360002070BD00F077
:1047A00081F8234A1468214691B9224C23681BB929
:1047B000304600F067F820602946304600F062F885
:1047C000431C26D10C233360304600F06CF8E4E73C
:1047D0000B685B1B1AD40B2B0FD90B60CD50CC1878
:1047E000304600F060F804F10B00231D20F00700B4
:1047F000C31A1BD05A42E25070BD8C420DBF636891
:104800004B686360136018BF0C46E9E70C464968C3
:10481000CAE7C41C24F00304A04205D0211A304684
:1048200000F030F80130CDD02560D9E770BD00BF71
:104830009400002098000020F8B5074614460E4664
:1048400021B91146BDE8F840FFF798BF22B9FFF73C
:1048500047FF25462846F8BD00F026F884420FD9C8
:1048600021463846FFF78AFF05460028F2D0314638
:104870002246FFF70FFF31463846FFF731FFE9E7E1
:104880003546E7E738B5064C002305460846236061
:10489000FCF72AFB431C02D1236803B12B6038BD0F
:1048A0008C0200207047704751F8040C0028A0F1DA
:1048B0000400BCBF0B58C01870470000F8B500BF1B
:1048C000F8BC08BC9E467047F8B500BFF8BC08BCF1
:0448D0009E46704749
:1048D400424C5F44454255475F4D5347203A20427E
:1048E4007574746F6E206973207072657373656478
:1048F4002E2E2E2C20476F696E6720746F20426F16
:104904006F746C6F61646572204D6F6465200D0A6D
:1049140000000000424C5F44454255475F4D5347F9
:104924003A20427574746F6E206973206E6F742020
:1049340070726573736564202E2E2E2C204A756D5B
:1049440070696E6720746F20557365722061707092
:104954006C69636174696F6E73200D0A0000000056
:10496400424C5F44454255475F4D53473A496E7642
:10497400616C696420636F6D6D616E6420636F6444
:10498400652072656365697665642066726F6D2063
:10499400686F7374200A0000424C5F4445425547D7
:1049A4005F4D53473A626F6F746C6F616465725FF9
:1049B4006A756D705F746F5F757365725F61707037
:1049C4000A000000424C5F44454255475F4D53473F
:1049D4003A4D53502076616C7565203A2025237832
:1049E4000A000000424C5F44454255475F4D53471F
:1049F4003A206170702072657365742068616E641A
:104A04006C65722061646472203A202523780A0060
:104A1400424C5F44454255475F4D53473A626F6F7E
:104A2400746C6F616465722068616E646C655F6745
:104A340065747665725F636D64200D0A0000000082
:104A4400424C5F44454255475F4D5347203A20430B
:104A54006865636B73756D20737563636573732029
:104A64002121200D0A000000424C5F444542554775
:104A74005F4D53473A20424C5F766572203A2025B9
:104A84006420252378200D0A00000000424C5F4476
:104A9400454255475F4D53473A20436865636B73FE
:104AA400756D204661696C202121200D0A000000EB
:104AB40000000000000000000102030406070809CA
:104AC4000000000001020304A0860100400D030061
:104AD400801A060000350C0040420F0080841E003E
:104AE40000093D0000127A000024F40000366E0133
:104AF4000048E801006CDC02232D302B2000686C98
:104B04004C006566674546470030313233343536EC
:104B14003738394142434445460030313233343525
:0C4B240036373839616263646566000052
:084B300080B7FF7F01000000C7
:044B3800B5010008BB
:044B3C0091010008DB
:104B400000093D00100000000100000010000020DE
:104B50000000000000000000000000000000000055
:104B60000000000000000000000000000000000045
:104B70000000000000000000000000000000000035
:104B80000000000000000000000000000000000025
:104B90000000000000000000000000000000000015
:104BA0000000000000000000000000000000000005
:0400000508003FCDE3
:00000001FF
